S01D000041546D656761333238705F48414C5F4472697665722E73726563CC
S11300000C9434000C945F010C949F010C944600F2
S11300100C9446000C9446000C9446000C94460044
S11300200C9446000C9446000C9446000C94730007
S11300300C94B1000C9446000C94EF000C9427012E
S11300400C9446000C9446000C94A9010C944600B0
S11300500C94E9010C9446000C9446000C94460060
S11300600C9446000C94460011241FBECFEFD8E038
S1130070DEBFCDBF21E0A0E0B1E001C01D92A230FF
S1130080B207E1F70E9470000C94C3020C940000C4
S11300900F9300E021E041E06FEF8FE70E945D02E3
S11300A021E041E062E17AE784E294EF0E94810278
S11300B041E064E085E00E943C0241E064E084E0C9
S11300C00E943C0241E064E083E00E943C0241E083
S11300D064E082E00E943C0281E00F910C943402BF
S11300E00E944800FFCF1F920F920FB60F92112467
S11300F02F933F934F935F936F937F938F939F932C
S1130100AF93BF93EF93FF9341E064E085E00E94D7
S113011047022FE788E391E0215080409040E1F7C7
S113012000C0000040E064E085E00E9447022FE741
S113013088E391E0215080409040E1F700C0000046
S1130140FF91EF91BF91AF919F918F917F916F91AB
S11301505F914F913F912F910F900FBE0F901F9081
S113016018951F920F920FB60F9211242F933F935D
S11301704F935F936F937F938F939F93AF93BF93AB
S1130180EF93FF9341E063E085E00E9447022FE78D
S113019088E391E0215080409040E1F700C00000E6
S11301A040E063E085E00E9447022FE788E391E0A6
S11301B0215080409040E1F700C00000FF91EF9192
S11301C0BF91AF919F918F917F916F915F914F916B
S11301D03F912F910F900FBE0F901F9018951F9273
S11301E00F920FB60F9211242F933F934F935F9367
S11301F06F937F938F939F93AF93BF93EF93FF93EB
S113020041E062E085E00E9447028FE19EE40197AD
S1130210F1F700C0000040E062E085E00E94470280
S11302208FE19EE40197F1F700C00000FF91EF9188
S1130230BF91AF919F918F917F916F915F914F91FA
S11302403F912F910F900FBE0F901F9018951F9202
S11302500F920FB60F9211242F933F934F935F93F6
S11302606F937F938F939F93AF93BF93EF93FF937A
S113027041E065E085E00E9447028FE39CE9019735
S1130280F1F700C0000040E065E085E00E9447020D
S11302908FE39CE90197F1F700C00000FF91EF9113
S11302A0BF91AF919F918F917F916F915F914F918A
S11302B03F912F910F900FBE0F901F9018951F9292
S11302C00F920FB60F9211242F933F934F935F9386
S11302D06F937F938F939F93AF93BF93EF93FF930A
S11302E085E40E94B40288E50E94B40284E50E9479
S11302F0B40289E40E94B40280E30E94B4028DE057
S11303000E94B4028AE00E94B4022FEF81EE94E0CE
S1130310215080409040E1F700C00000FF91EF9130
S1130320BF91AF919F918F917F916F915F914F9109
S11303303F912F910F900FBE0F901F9018951F9211
S11303400F920FB60F9211240F900FBE0F901F90B3
S113035018951F920F920FB60F9211242F933F936B
S11303604F935F936F937F938F939F93AF93BF93B9
S1130370EF93FF930E94BB0241E065E085E00E9499
S113038047022FEF80E792E0215080409040E1F750
S113039000C0000040E065E085E00E9447022FEFC6
S11303A080E792E0215080409040E1F700C00000D7
S11303B0FF91EF91BF91AF919F918F917F916F9139
S11303C05F914F913F912F910F900FBE0F901F900F
S11303D018951F920F920FB60F9211242F933F93EB
S11303E04F935F936F937F938F939F93AF93BF9339
S11303F0EF93FF938091000190910101892B59F4AF
S113040081E090E0909301018093000140E065E079
S113041085E00E9447022FEF89E698E12150804051
S11304209040E1F700C0000080910001909101012B
S1130430019749F441E065E085E00E94470210928B
S1130440010110920001FF91EF91BF91AF919F9133
S11304508F917F916F915F914F913F912F910F9069
S11304600FBE0F901F901895882321F0813019F446
S113047078940895F8940895E62FF0E090A1082E5A
S113048001C0440F0A94EAF7942B90A308954423DF
S113049079F0413089F4E82FF0E080A121E030E0E8
S11304A0062E01C0220F0A94EAF7822B80A3089536
S11304B0E82FF0E080A110A208950F9394B594BDA5
S11304C094B594BD94B5926094BD95B595BD95B51C
S11304D095BD95B5956095BD16BC87BD68BDEEE626
S11304E0F0E0808194E0299F90011124822B808385
S11304F08081440F482B40838081082B00830F9117
S113050008950F93E0E8F0E0308130833081308348
S113051030813083E1E8F0E030813083308138602D
S113052030833081346030831092850010928400CF
S1130530909389008093880070938B0060938A0065
S1130540EFE6F0E080818083808194E0499FA00100
S11305501124842B80838081220F282B2083808187
S1130560082B00830F9108959091C00095FFFCCF54
S11305708093C60008958091C00087FF03C08091D6
S10D0580C600F9CF0895F894FFCFE8
S9030000FC
