S012000041726475696E6F554E4F2E737265634E
S11300000C945F000C94B5040C94E2040C948700E7
S11300100C9487000C9487000C9487000C9459046A
S11300200C9487000C9487000C9487000C94870030
S11300300C9487000C9487000C9487000C94870020
S11300400C940F050C9487000C942C010C947101F2
S11300500C9487000C9487000C9487000C94870000
S11300600C9487000C948700020000000700020132
S11300700000030406000000000000000001020468
S11300800810204080010204081020010204081016
S1130090200404040404040404020202020202030D
S11300A0030303030300000000250028002B0000C5
S11300B0000000240027002A00007502FF0211241A
S11300C01FBECFEFD8E0DEBFCDBF11E0A0E0B1E0AE
S11300D0E4EBFDE002C005900D92A433B107D9F71B
S11300E021E0A4E3B1E001C01D92A83FB207E1F70B
S11300F010E0CEEBD0E004C02297FE010E94D406AB
S1130100CA3BD107C9F70E940B030C94D8060C9480
S11301100000FC0124853585F901E05CFF4F8081F6
S11301209181329620813181805C9F4F821B930B99
S11301308F739078992324F40197806C9F6F0196B4
S11301400895FC0184859585FC01E05CFF4F4081A6
S113015051813296208131814217530741F0208129
S11301603181FC01E20FF31F808190E008958FEF4D
S11301709FEF0895FC0184859585FC01E05CFF4FA9
S1130180408151813296208131814217530781F099
S113019020813181DC01A20FB31F8C912081318138
S11301A02F5F3F4F2F7333273183208390E00895CF
S11301B08FEF9FEF0895FC0181A1882329F0A48982
S11301C0B5898C9186FFFBCF11A20895DC011E96A0
S11301D08D919C911F97FC01E05CFF4F4081518100
S11301E04F5F5F4F4F7355273296208131814217FD
S11301F05307D9F3FC01E05CFF4F20813181FC01FE
S1130200E20FF31F60831E96ED91FC911F97E05C53
S1130210FF4F518340835696ED91FC91579740814F
S113022021E030E0C9015F960C905F9702C0880F0F
S1130230991F0A94E2F7842B808381E091968C9332
S113024091975496ED91FC915597808180648083B9
S113025081E090E0089508951F920F920FB60F92D7
S113026011242F933F934F938F939F93AF93BF93F7
S1130270EF93FF938091C00082FD1AC04091C600A5
S11302808091DA019091DB0101968F739927209177
S1130290DC013091DD018217930761F0EAEDF1E0B2
S11302A0A081B181A656BE4F4C939183808302C036
S11302B08091C600FF91EF91BF91AF919F918F9173
S11302C04F913F912F910F900FBE0F901F90189553
S11302D084E391E00E948900892B11F00E942B0194
S11302E008951F920F920FB60F9211242F933F93EC
S11302F08F939F93AF93BF93EF93FF9320919601B6
S113030030919701809198019091990128173907AC
S113031031F4E1ECF0E080818F7D808310C0E8E966
S1130320F1E0A081B181AA5ABE4F2C9180819181C4
S113033001968F739927918380832093C600FF9140
S1130340EF91BF91AF919F918F913F912F910F901A
S11303500FBE0F901F9018958F929F92AF92BF92ED
S1130360CF92DF92EF92FF920F931F93CF93DF937D
S1130370CDB7DEB7FC011382128288EE93E0A0E0D1
S1130380B0E084839583A683B78389E091E0918369
S113039080837587648757874687318B208B138BBF
S11303A0028BF58AE48AD78AC68AB18EA08E938E90
S11303B0828E8F85848F8889858F8989868F8A89A3
S11303C0878F8B8980A3DF91CF911F910F91FF902D
S11303D0EF90DF90CF90BF90AF909F908F90089553
S11303E0CF92DF92EF92FF92CF93DF93EC016A01F9
S11303F07B01411581EE58076105710509F1EC890E
S1130400FD8981E090E008A002C0880F991F0A943A
S1130410E2F7808360E079E08DE390E0A701960144
S11304200E94B006BA01A90141505109610971093C
S11304307695679557954795411580E15807A8F03B
S1130440EC89FD89108260E874E88EE190E0A701F0
S113045096010E94B006BA01A901415051096109EF
S113046071097695679557954795E889F989508379
S1130470EA89FB89408319A2EE89FF89408181E0E2
S113048090E09C010C8C02C0220F331F0A94E2F707
S1130490242B2083EE89FF8940819C010D8C02C0AE
S11304A0220F331F0A94E2F7242B2083EE89FF895D
S11304B040819C010E8C02C0220F331F0A94E2F784
S11304C0242B2083EE89FF8920810F8C02C0880FA2
S11304D0991F0A94E2F7809582238083DF91CF915C
S11304E0FF90EF90DF90CF9008958F929F92AF92FC
S11304F0BF92CF92DF92EF92FF920F931F9381E00E
S11305008F9385E08F9387E08F9383E08F9384E0CC
S11305108F930F2EF6EC8F2E912CF02D0F2EF2ECE4
S1130520AF2EB12CF02D0F2EF1ECCF2ED12CF02DBF
S11305300F2EF0ECEF2EF12CF02D04EC10E025EC56
S113054030E046E551E06AE971E084E391E00E941D
S1130550AC010F900F900F900F900F901F910F917F
S1130560FF90EF90DF90CF90BF90AF909F908F90CF
S11305700895AF92BF92CF92DF92EF92FF920F93C2
S11305801F93CF93DF935C017B01C0E0D0E000E0D8
S113059010E0F501EC0FFD1F4AE050E06281C70155
S11305A00E941B046C016EE2C7010E9463038C0D60
S11305B09D1D080F191F2196C330D10551F74AE03C
S11305C050E0F5016581C7010E941B04800F911F53
S11305D0DF91CF911F910F91FF90EF90DF90CF901B
S11305E0BF90AF9008950F93FC0189E191E091834E
S11305F0808362834383248305830F9108950F933B
S113060000E020E040E060E08EED91E00E94F30223
S11306100F91089508950E94A9050E940A030E945B
S113062082060E94950688E691E0892B29F00E94B3
S113063068010E949506FBCF0E949506FDCFCF92DC
S1130640DF92EF92FF920F931F93CF93DF936C018E
S113065041155105B1F0062F172FEA01E12CF12CB9
S1130660D8016D918D01D601ED91FC910190F0813D
S1130670E02DC6010995E80EF91E2197209781F710
S113068002C0E12CF12CC701DF91CF911F910F9192
S1130690FF90EF90DF90CF9008956115710581F080
S11306A0FB0101900020E9F73197AF01461B570B7E
S11306B0DC01ED91FC910280F381E02D0995089510
S11306C080E090E00895DC01ED91FC910190F081CF
S11306D0E02D099508950F931F93CF93DF93EC01B9
S11306E06DE00E9463038C016AE0CE010E94630303
S11306F0800F911FDF91CF911F910F9108950F9358
S11307001F93CF93DF93EC010E944D038C01CE0124
S11307100E946B03800F911FDF91CF911F910F9166
S113072008956F927F928F929F92AF92BF92CF92D1
S1130730DF92EF92FF920F931F93CF93DF93CDB786
S1130740DEB7A1970FB6F894DEBF0FBECDBF6C0124
S1130750742E352F862F972F622E19A221E026158D
S113076020F00F2EFAE06F2EF02D7E01A1E2EA0EAA
S1130770F11C862C912CA12CB12C672D732FA50173
S113078094010E94B006E22F732F022F132F242FFF
S1130790352FF72D6E9EF0191124B1E0EB1AF108F4
S11307A0FA3010F4F05D01C0F95CD701FC93012B21
S11307B0022B032B29F07E2E372F842F952FDDCF8C
S11307C0E114F10491F0F70101900020E9F7319769
S11307D0AF014E195F09D601ED91FC910280F381BE
S11307E0E02DB701C601099502C080E090E0A19612
S11307F00FB6F894DEBF0FBECDBFDF91CF911F912E
S11308000F91FF90EF90DF90CF90BF90AF909F90AB
S11308108F907F906F9008952115310549F4DC0184
S1130820ED91FC910190F081E02D642F09950895DC
S11308300E94910308959A01462F50E060E070E011
S11308400E940C040895813039F018F0823051F080
S1130850089510926E000895EFE6F0E080818D7F98
S113086080830895E0E7F0E080818D7F808381E0DC
S11308708093B000E1EBF0E08081887F8460808326
S11308801092B3000895CF93C82F809104018C1364
S113089007C0E8E6F0E084919FEF9093040101C063
S11308A08FEF0E94230460E08C2F0E945106CF91A9
S11308B008951F920F920FB60F9211242F933F9316
S11308C04F935F936F937F938F939F93AF93BF9354
S11308D0EF93FF938091E7019091E801A091E901E2
S11308E0B091EA01892B8A2B8B2B51F18091E40181
S11308F0E091E501F091E601908189278083809160
S1130900E7019091E801A091E901B091EA0118167C
S113091019061A061B06C4F48091E7019091E801B8
S1130920A091E901B091EA010197A109B10980936D
S1130930E7019093E801A093E901B093EA0104C0B0
S1130940809104010E944304FF91EF91BF91AF9104
S11309509F918F917F916F915F914F913F912F91D3
S11309600F900FBE0F901F9018951F920F920FB605
S11309700F9211242F933F934F935F936F937F9321
S11309808F939F93AF93BF93EF93FF938091EB016A
S11309909091EC01892B29F0E091EB01F091EC01AD
S11309A00995FF91EF91BF91AF919F918F917F91A5
S11309B06F915F914F913F912F910F900FBE0F90C8
S11309C01F9018951F920F920FB60F9211242F9318
S11309D03F934F935F936F937F938F939F93AF93C3
S11309E0BF93EF93FF938091ED019091EE01892BDA
S11309F029F0E091ED01F091EE010995FF91EF915D
S1130A00BF91AF919F918F917F916F915F914F9122
S1130A103F912F910F900FBE0F901F9018951F922A
S1130A200F920FB60F9211242F933F938F939F939E
S1130A30AF93BF938091F0019091F101A091F201E5
S1130A40B091F3013091EF0123E0230F2D3720F40F
S1130A500196A11DB11D05C026E8230F0296A11D14
S1130A60B11D2093EF018093F0019093F101A093C5
S1130A70F201B093F3018091F4019091F501A091FA
S1130A80F601B091F7010196A11DB11D8093F40107
S1130A909093F501A093F601B093F701BF91AF9144
S1130AA09F918F913F912F910F900FBE0F901F90A8
S1130AB018953FB7F8948091F4019091F501A091B5
S1130AC0F601B091F70126B5A89B05C02F3F19F098
S1130AD00196A11DB11D3FBFBA2FA92F982F8827BA
S1130AE0820F911DA11DB11DBC01CD01660F771FA1
S1130AF0881F991F660F771F881F991F0895CF922B
S1130B00DF92EF92FF92CF93DF936B017C010E94FF
S1130B105905EB01C114D104E104F10499F00E94D8
S1130B2059056C1B7D0B683E734038F081E0C81A90
S1130B30D108E108F108C851DC4FC114D104E10423
S1130B40F10469F7DF91CF91FF90EF90DF90CF90A0
S1130B500895789484B5826084BD84B5816084BD31
S1130B6085B5826085BD85B5816085BDEEE6F0E022
S1130B70808181608083E1E8F0E01082808182607E
S1130B808083808181608083E0E8F0E080818160FF
S1130B908083E1EBF0E0808184608083E0EBF0E02F
S1130BA0808181608083EAE7F0E0808184608083D3
S1130BB0808182608083808181608083808180687D
S1130BC080831092C1000895833069F028F4813045
S1130BD0B1F08230C1F008958630C9F08730E9F071
S1130BE0843001F506C0E0E8F0E080818F778083EF
S1130BF00895E0E8F0E080818F7D8083089584B5D6
S1130C008F7784BD089584B58F7D84BD0895E0EB0E
S1130C10F0E080818F7780830895E0EBF0E08081BD
S1130C208F7D80830895CF93DF9390E0FC01E35898
S1130C30FF4F2491FC01EF56FF4F8491882371F1FB
S1130C4090E0880F991FFC01E155FF4FA591B491E5
S1130C508B559F4FFC01C591D49161110BC08FB787
S1130C60F8949C91209592239C93E8812E232883C9
S1130C708FBF14C0623061F48FB7F8943C91922F07
S1130C80909593239C93E8812E2B28838FBF06C0D5
S1130C908FB7F894EC912E2B2C938FBFDF91CF91CB
S1130CA008951F93CF93DF93C62F282F30E0F901C7
S1130CB0E759FF4F8491F901E358FF4F1491F9016B
S1130CC0EF56FF4FD491DD23C9F081110E94E40552
S1130CD02D2F30E0F901EE0FFF1FEB55FF4FA591CB
S1130CE0B4918FB7F894C11105C0EC9110951E23EF
S1130CF01C9303C0EC911E2B1C938FBFDF91CF91EB
S1130D001F91089561E08DE00E94130640E855E2CA
S1130D1060E070E084E391E00E94F0016BE171E037
S1130D2084E391E00E944D03089560E08DE00E9409
S1130D30510668EE73E080E090E00E947F0561E078
S1130D408DE00E94510668EE73E080E090E00E941E
S1130D507F0568E271E084E391E00E947F030895D7
S1130D60A1E21A2EAA1BBB1BFD010DC0AA1FBB1FAB
S1130D70EE1FFF1FA217B307E407F50720F0A21B1D
S1130D80B30BE40BF50B661F771F881F991F1A948A
S1130D9069F760957095809590959B01AC01BD01B4
S1130DA0CF010895EE0FFF1F0590F491E02D0994F3
S1070DB0F894FFCFE1
S1130DB401000000FF00000000E6001F038900BAE0
S1130DC400A100DB0000000000B90248656C6C6FF0
S1130DD420576F726C64210031323334353637381E
S1070DE4392E2E0072
S9030000FC
